{
  "contractName": "CommunEth",
  "abi": [
    {
      "anonymous": false,
      "inputs": [
        {
          "indexed": false,
          "internalType": "string",
          "name": "path",
          "type": "string"
        },
        {
          "indexed": false,
          "internalType": "string",
          "name": "name",
          "type": "string"
        },
        {
          "indexed": false,
          "internalType": "address",
          "name": "owner",
          "type": "address"
        }
      ],
      "name": "ChannelCreated",
      "type": "event"
    },
    {
      "anonymous": false,
      "inputs": [
        {
          "indexed": false,
          "internalType": "bytes32",
          "name": "id",
          "type": "bytes32"
        },
        {
          "indexed": false,
          "internalType": "string",
          "name": "question",
          "type": "string"
        },
        {
          "indexed": false,
          "internalType": "address",
          "name": "creator",
          "type": "address"
        }
      ],
      "name": "PollCreated",
      "type": "event"
    },
    {
      "constant": false,
      "inputs": [
        {
          "internalType": "string",
          "name": "name",
          "type": "string"
        },
        {
          "internalType": "string",
          "name": "path",
          "type": "string"
        },
        {
          "internalType": "string",
          "name": "password",
          "type": "string"
        }
      ],
      "name": "createChannel",
      "outputs": [],
      "payable": false,
      "stateMutability": "nonpayable",
      "type": "function"
    },
    {
      "constant": false,
      "inputs": [
        {
          "internalType": "string",
          "name": "path",
          "type": "string"
        },
        {
          "internalType": "string",
          "name": "question",
          "type": "string"
        },
        {
          "internalType": "string[]",
          "name": "answers",
          "type": "string[]"
        }
      ],
      "name": "createPoll",
      "outputs": [],
      "payable": false,
      "stateMutability": "nonpayable",
      "type": "function"
    },
    {
      "constant": true,
      "inputs": [
        {
          "internalType": "bytes32",
          "name": "pollId",
          "type": "bytes32"
        }
      ],
      "name": "getPoll",
      "outputs": [
        {
          "components": [
            {
              "internalType": "bytes32",
              "name": "id",
              "type": "bytes32"
            },
            {
              "internalType": "string",
              "name": "question",
              "type": "string"
            },
            {
              "internalType": "string[]",
              "name": "answers",
              "type": "string[]"
            },
            {
              "internalType": "string",
              "name": "channelPath",
              "type": "string"
            },
            {
              "internalType": "address",
              "name": "creator",
              "type": "address"
            }
          ],
          "internalType": "struct CommunEth.Poll",
          "name": "poll",
          "type": "tuple"
        }
      ],
      "payable": false,
      "stateMutability": "view",
      "type": "function"
    },
    {
      "constant": false,
      "inputs": [
        {
          "internalType": "bytes32",
          "name": "pollId",
          "type": "bytes32"
        },
        {
          "internalType": "uint8",
          "name": "answer",
          "type": "uint8"
        }
      ],
      "name": "vote",
      "outputs": [],
      "payable": false,
      "stateMutability": "nonpayable",
      "type": "function"
    },
    {
      "constant": true,
      "inputs": [
        {
          "internalType": "string",
          "name": "path",
          "type": "string"
        }
      ],
      "name": "getChannelOwner",
      "outputs": [
        {
          "internalType": "address",
          "name": "",
          "type": "address"
        }
      ],
      "payable": false,
      "stateMutability": "view",
      "type": "function"
    }
  ],
  "bytecode": "0x608060405234801561001057600080fd5b506115e5806100206000396000f3fe608060405234801561001057600080fd5b50600436106100575760003560e01c80632cbbd7381461005c5780638f12995b1461008c578063c9a28cb9146100bc578063ccaca3db146100d8578063cfba7a09146100f4575b600080fd5b61007660048036036100719190810190610caa565b610110565b6040516100839190611300565b60405180910390f35b6100a660048036036100a19190810190610d0f565b6103ca565b6040516100b39190611202565b60405180910390f35b6100d660048036036100d19190810190610cd3565b6104c8565b005b6100f260048036036100ed9190810190610de7565b610535565b005b61010e60048036036101099190810190610d50565b61071d565b005b6101186109a3565b600160008381526020019081526020016000206040518060a001604052908160008201548152602001600182018054600181600116156101000203166002900480601f0160208091040260200160405190810160405280929190818152602001828054600181600116156101000203166002900480156101d95780601f106101ae576101008083540402835291602001916101d9565b820191906000526020600020905b8154815290600101906020018083116101bc57829003601f168201915b5050505050815260200160028201805480602002602001604051908101604052809291908181526020016000905b828210156102c3578382906000526020600020018054600181600116156101000203166002900480601f0160208091040260200160405190810160405280929190818152602001828054600181600116156101000203166002900480156102af5780601f10610284576101008083540402835291602001916102af565b820191906000526020600020905b81548152906001019060200180831161029257829003601f168201915b505050505081526020019060010190610207565b505050508152602001600382018054600181600116156101000203166002900480601f0160208091040260200160405190810160405280929190818152602001828054600181600116156101000203166002900480156103645780601f1061033957610100808354040283529160200191610364565b820191906000526020600020905b81548152906001019060200180831161034757829003601f168201915b505050505081526020016004820160009054906101000a900473ffffffffffffffffffffffffffffffffffffffff1673ffffffffffffffffffffffffffffffffffffffff1673ffffffffffffffffffffffffffffffffffffffff16815250509050919050565b600081600073ffffffffffffffffffffffffffffffffffffffff166000826040516103f59190611198565b908152602001604051809103902060000160009054906101000a900473ffffffffffffffffffffffffffffffffffffffff1673ffffffffffffffffffffffffffffffffffffffff16141561047e576040517f08c379a0000000000000000000000000000000000000000000000000000000008152600401610475906112c0565b60405180910390fd5b60008360405161048e9190611198565b908152602001604051809103902060000160009054906101000a900473ffffffffffffffffffffffffffffffffffffffff16915050919050565b806002600084815260200190815260200160002060003373ffffffffffffffffffffffffffffffffffffffff1673ffffffffffffffffffffffffffffffffffffffff16815260200190815260200160002060006101000a81548160ff021916908360ff1602179055505050565b81600073ffffffffffffffffffffffffffffffffffffffff1660008260405161055e9190611198565b908152602001604051809103902060000160009054906101000a900473ffffffffffffffffffffffffffffffffffffffff1673ffffffffffffffffffffffffffffffffffffffff16146105e6576040517f08c379a00000000000000000000000000000000000000000000000000000000081526004016105dd906112a0565b60405180910390fd5b60405180608001604052803373ffffffffffffffffffffffffffffffffffffffff1681526020018581526020018481526020018381525060008460405161062d9190611198565b908152602001604051809103902060008201518160000160006101000a81548173ffffffffffffffffffffffffffffffffffffffff021916908373ffffffffffffffffffffffffffffffffffffffff160217905550602082015181600101908051906020019061069e9291906109eb565b5060408201518160020190805190602001906106bb9291906109eb565b5060608201518160030190805190602001906106d89291906109eb565b509050507f4ff533811c4a32b3d67001529174cc06f31131411d44ee13f1fce40a1a5a270183853360405161070f9392919061125b565b60405180910390a150505050565b82600073ffffffffffffffffffffffffffffffffffffffff166000826040516107469190611198565b908152602001604051809103902060000160009054906101000a900473ffffffffffffffffffffffffffffffffffffffff1673ffffffffffffffffffffffffffffffffffffffff1614156107cf576040517f08c379a00000000000000000000000000000000000000000000000000000000081526004016107c6906112c0565b60405180910390fd5b6000825111610813576040517f08c379a000000000000000000000000000000000000000000000000000000000815260040161080a906112e0565b60405180910390fd5b60008484338560008151811061082557fe5b6020026020010151426040516020016108429594939291906111af565b6040516020818303038152906040528051906020012090506108626109a3565b6040518060a001604052808381526020018681526020018581526020018781526020013373ffffffffffffffffffffffffffffffffffffffff16815250905080600160008481526020019081526020016000206000820151816000015560208201518160010190805190602001906108db9291906109eb565b5060408201518160020190805190602001906108f8929190610a6b565b5060608201518160030190805190602001906109159291906109eb565b5060808201518160040160006101000a81548173ffffffffffffffffffffffffffffffffffffffff021916908373ffffffffffffffffffffffffffffffffffffffff1602179055509050507f7f49ad19314375f348c477ff4aa6c83fffac22c854f4ffc94a09c3f4005c95758286336040516109939392919061121d565b60405180910390a1505050505050565b6040518060a0016040528060008019168152602001606081526020016060815260200160608152602001600073ffffffffffffffffffffffffffffffffffffffff1681525090565b828054600181600116156101000203166002900490600052602060002090601f016020900481019282601f10610a2c57805160ff1916838001178555610a5a565b82800160010185558215610a5a579182015b82811115610a59578251825591602001919060010190610a3e565b5b509050610a679190610acb565b5090565b828054828255906000526020600020908101928215610aba579160200282015b82811115610ab9578251829080519060200190610aa99291906109eb565b5091602001919060010190610a8b565b5b509050610ac79190610af0565b5090565b610aed91905b80821115610ae9576000816000905550600101610ad1565b5090565b90565b610b1991905b80821115610b155760008181610b0c9190610b1c565b50600101610af6565b5090565b90565b50805460018160011615610100020316600290046000825580601f10610b425750610b61565b601f016020900490600052602060002090810190610b609190610acb565b5b50565b600082601f830112610b7557600080fd5b8135610b88610b838261134f565b611322565b9150818183526020840193506020810190508360005b83811015610bce5781358601610bb48882610bed565b845260208401935060208301925050600181019050610b9e565b5050505092915050565b600081359050610be781611574565b92915050565b600082601f830112610bfe57600080fd5b8135610c11610c0c82611377565b611322565b91508082526020830160208301858383011115610c2d57600080fd5b610c388382846114e6565b50505092915050565b600082601f830112610c5257600080fd5b8135610c65610c60826113a3565b611322565b91508082526020830160208301858383011115610c8157600080fd5b610c8c8382846114e6565b50505092915050565b600081359050610ca48161158b565b92915050565b600060208284031215610cbc57600080fd5b6000610cca84828501610bd8565b91505092915050565b60008060408385031215610ce657600080fd5b6000610cf485828601610bd8565b9250506020610d0585828601610c95565b9150509250929050565b600060208284031215610d2157600080fd5b600082013567ffffffffffffffff811115610d3b57600080fd5b610d4784828501610c41565b91505092915050565b600080600060608486031215610d6557600080fd5b600084013567ffffffffffffffff811115610d7f57600080fd5b610d8b86828701610c41565b935050602084013567ffffffffffffffff811115610da857600080fd5b610db486828701610c41565b925050604084013567ffffffffffffffff811115610dd157600080fd5b610ddd86828701610b64565b9150509250925092565b600080600060608486031215610dfc57600080fd5b600084013567ffffffffffffffff811115610e1657600080fd5b610e2286828701610c41565b935050602084013567ffffffffffffffff811115610e3f57600080fd5b610e4b86828701610c41565b925050604084013567ffffffffffffffff811115610e6857600080fd5b610e7486828701610c41565b9150509250925092565b6000610e8a8383610fd3565b905092915050565b610e9b816114b0565b82525050565b610eb2610ead8261145d565b611528565b82525050565b610ec18161144b565b82525050565b610ed08161144b565b82525050565b6000610ee1826113df565b610eeb818561140d565b935083602082028501610efd856113cf565b8060005b85811015610f395784840389528151610f1a8582610e7e565b9450610f2583611400565b925060208a01995050600181019050610f01565b50829750879550505050505092915050565b610f548161146f565b82525050565b610f638161146f565b82525050565b6000610f74826113f5565b610f7e818561142f565b9350610f8e8185602086016114f5565b610f9781611556565b840191505092915050565b6000610fad826113f5565b610fb78185611440565b9350610fc78185602086016114f5565b80840191505092915050565b6000610fde826113ea565b610fe8818561141e565b9350610ff88185602086016114f5565b61100181611556565b840191505092915050565b6000611017826113ea565b6110218185611440565b93506110318185602086016114f5565b80840191505092915050565b600061104a60168361142f565b91507f4368616e6e656c20616c72656164792065786973742e000000000000000000006000830152602082019050919050565b600061108a60178361142f565b91507f4368616e6e656c20646f6573206e6f742065786973742e0000000000000000006000830152602082019050919050565b60006110ca60168361142f565b91507f496e76616c696420616e7377657273206c656e677468000000000000000000006000830152602082019050919050565b600060a0830160008301516111156000860182610f4b565b506020830151848203602086015261112d8282610fd3565b915050604083015184820360408601526111478282610ed6565b915050606083015184820360608601526111618282610fd3565b91505060808301516111766080860182610eb8565b508091505092915050565b61119261118d82611499565b61154c565b82525050565b60006111a48284610fa2565b915081905092915050565b60006111bb8288610fa2565b91506111c78287610fa2565b91506111d38286610ea1565b6014820191506111e3828561100c565b91506111ef8284611181565b6020820191508190509695505050505050565b60006020820190506112176000830184610ec7565b92915050565b60006060820190506112326000830186610f5a565b81810360208301526112448185610f69565b90506112536040830184610e92565b949350505050565b600060608201905081810360008301526112758186610f69565b905081810360208301526112898185610f69565b90506112986040830184610e92565b949350505050565b600060208201905081810360008301526112b98161103d565b9050919050565b600060208201905081810360008301526112d98161107d565b9050919050565b600060208201905081810360008301526112f9816110bd565b9050919050565b6000602082019050818103600083015261131a81846110fd565b905092915050565b6000604051905081810181811067ffffffffffffffff8211171561134557600080fd5b8060405250919050565b600067ffffffffffffffff82111561136657600080fd5b602082029050602081019050919050565b600067ffffffffffffffff82111561138e57600080fd5b601f19601f8301169050602081019050919050565b600067ffffffffffffffff8211156113ba57600080fd5b601f19601f8301169050602081019050919050565b6000819050602082019050919050565b600081519050919050565b600081519050919050565b600081519050919050565b6000602082019050919050565b600082825260208201905092915050565b600082825260208201905092915050565b600082825260208201905092915050565b600081905092915050565b600061145682611479565b9050919050565b600061146882611479565b9050919050565b6000819050919050565b600073ffffffffffffffffffffffffffffffffffffffff82169050919050565b6000819050919050565b600060ff82169050919050565b60006114bb826114c2565b9050919050565b60006114cd826114d4565b9050919050565b60006114df82611479565b9050919050565b82818337600083830152505050565b60005b838110156115135780820151818401526020810190506114f8565b83811115611522576000848401525b50505050565b60006115338261153a565b9050919050565b600061154582611567565b9050919050565b6000819050919050565b6000601f19601f8301169050919050565b60008160601b9050919050565b61157d8161146f565b811461158857600080fd5b50565b611594816114a3565b811461159f57600080fd5b5056fea365627a7a7231582041af087eef938f18965be8bdc5489216d668aa86c1d4428036502b0b4278297c6c6578706572696d656e74616cf564736f6c63430005100040",
  "source": "// SPDX-License-Identifier: MIT\npragma solidity >=0.4.21 <8.10.0;\npragma experimental ABIEncoderV2;\n\ncontract CommunEth {\n    struct Channel {\n        address owner; // creator\n        string name; // Name\n        string path; // waku topic format\n        string password;\n    }\n\n    struct Poll {\n        bytes32 id;\n        string question;\n        string[] answers;\n        string channelPath;\n        address creator;\n    }\n\n    // channelPath => x\n    mapping(string => Channel) channels;\n    // channelPath => (id => Poll)\n    mapping(bytes32 => Poll) polls;\n    mapping(bytes32 => mapping(address => uint8)) votes;\n\n    event ChannelCreated(string path, string name, address owner);\n    event PollCreated(bytes32 id, string question, address creator);\n\n    modifier channelExists(string memory path) {\n        require(channels[path].owner != address(0), \"Channel does not exist.\");\n        _;\n    }\n\n    modifier channelDoesNotExists(string memory path) {\n        require(channels[path].owner == address(0), \"Channel already exist.\");\n        _;\n    }\n\n    function createChannel(\n        string memory name,\n        string memory path,\n        string memory password\n    ) public channelDoesNotExists(path) {\n        channels[path] = Channel(msg.sender, name, path, password);\n        emit ChannelCreated(path, name, msg.sender);\n    }\n\n    function createPoll(\n        string memory path,\n        string memory question,\n        string[] memory answers\n    ) public channelExists(path) {\n        require(answers.length > 0, \"Invalid answers length\");\n\n        bytes32 pollId = keccak256(\n            abi.encodePacked(\n                path,\n                question,\n                msg.sender,\n                answers[0],\n                block.timestamp\n            )\n        );\n\n        Poll memory poll = Poll({\n            id: pollId,\n            question: question,\n            answers: answers,\n            channelPath: path,\n            creator: msg.sender\n        });\n\n        polls[pollId] = poll;\n        emit PollCreated(pollId, question, msg.sender);\n    }\n\n    function getPoll(bytes32 pollId) public view returns (Poll memory poll) {\n        poll = polls[pollId];\n    }\n\n    function vote(bytes32 pollId, uint8 answer) public {\n        // require(\n        //     votes[pollId][msg.sender] != address(0),\n        //     \"Poll does not exists\"\n        // );\n        votes[pollId][msg.sender] = answer;\n    }\n\n    function getChannelOwner(string memory path)\n        public\n        view\n        channelExists(path)\n        returns (address)\n    {\n        return channels[path].owner;\n    }\n}\n",
  "sourcePath": "/Users/josancamon19/Downloads/personal/communneth/dapp/contracts/CommunEth.sol",
  "compiler": {
    "name": "solc",
    "version": "0.5.16+commit.9c3226ce.Emscripten.clang"
  },
  "schemaVersion": "3.4.3",
  "updatedAt": "2022-03-22T18:21:23.790Z",
  "networkType": "ethereum",
  "devdoc": {
    "methods": {}
  },
  "userdoc": {
    "methods": {}
  }
}