{
  "contractName": "CommunEth",
  "abi": [
    {
      "anonymous": false,
      "inputs": [
        {
          "indexed": false,
          "internalType": "string",
          "name": "path",
          "type": "string"
        },
        {
          "indexed": false,
          "internalType": "string",
          "name": "name",
          "type": "string"
        },
        {
          "indexed": false,
          "internalType": "address",
          "name": "owner",
          "type": "address"
        }
      ],
      "name": "ChannelCreated",
      "type": "event"
    },
    {
      "anonymous": false,
      "inputs": [
        {
          "indexed": false,
          "internalType": "bytes32",
          "name": "id",
          "type": "bytes32"
        },
        {
          "indexed": false,
          "internalType": "string",
          "name": "question",
          "type": "string"
        },
        {
          "indexed": false,
          "internalType": "address",
          "name": "creator",
          "type": "address"
        }
      ],
      "name": "PollCreated",
      "type": "event"
    },
    {
      "constant": false,
      "inputs": [
        {
          "internalType": "string",
          "name": "name",
          "type": "string"
        },
        {
          "internalType": "string",
          "name": "path",
          "type": "string"
        },
        {
          "internalType": "string",
          "name": "password",
          "type": "string"
        }
      ],
      "name": "createChannel",
      "outputs": [],
      "payable": false,
      "stateMutability": "nonpayable",
      "type": "function"
    },
    {
      "constant": false,
      "inputs": [
        {
          "internalType": "string",
          "name": "path",
          "type": "string"
        },
        {
          "internalType": "string",
          "name": "question",
          "type": "string"
        },
        {
          "internalType": "string[]",
          "name": "answers",
          "type": "string[]"
        }
      ],
      "name": "createPoll",
      "outputs": [],
      "payable": false,
      "stateMutability": "nonpayable",
      "type": "function"
    },
    {
      "constant": true,
      "inputs": [
        {
          "internalType": "bytes32",
          "name": "pollId",
          "type": "bytes32"
        }
      ],
      "name": "getPoll",
      "outputs": [
        {
          "components": [
            {
              "internalType": "bytes32",
              "name": "id",
              "type": "bytes32"
            },
            {
              "internalType": "string",
              "name": "question",
              "type": "string"
            },
            {
              "internalType": "string[]",
              "name": "answers",
              "type": "string[]"
            },
            {
              "internalType": "string",
              "name": "channelPath",
              "type": "string"
            },
            {
              "internalType": "address",
              "name": "creator",
              "type": "address"
            }
          ],
          "internalType": "struct CommunEth.Poll",
          "name": "poll",
          "type": "tuple"
        }
      ],
      "payable": false,
      "stateMutability": "view",
      "type": "function"
    },
    {
      "constant": false,
      "inputs": [
        {
          "internalType": "bytes32",
          "name": "pollId",
          "type": "bytes32"
        },
        {
          "internalType": "uint8",
          "name": "answer",
          "type": "uint8"
        }
      ],
      "name": "vote",
      "outputs": [],
      "payable": false,
      "stateMutability": "nonpayable",
      "type": "function"
    },
    {
      "constant": true,
      "inputs": [
        {
          "internalType": "string",
          "name": "path",
          "type": "string"
        }
      ],
      "name": "getChannelOwner",
      "outputs": [
        {
          "internalType": "address",
          "name": "",
          "type": "address"
        }
      ],
      "payable": false,
      "stateMutability": "view",
      "type": "function"
    },
    {
      "constant": true,
      "inputs": [
        {
          "internalType": "string",
          "name": "path",
          "type": "string"
        },
        {
          "internalType": "string",
          "name": "password",
          "type": "string"
        }
      ],
      "name": "matchesCredentials",
      "outputs": [
        {
          "internalType": "bool",
          "name": "",
          "type": "bool"
        }
      ],
      "payable": false,
      "stateMutability": "view",
      "type": "function"
    }
  ],
  "bytecode": "0x608060405234801561001057600080fd5b50611927806100206000396000f3fe608060405234801561001057600080fd5b50600436106100625760003560e01c80632cbbd738146100675780633d5d8531146100975780638f12995b146100c7578063c9a28cb9146100f7578063ccaca3db14610113578063cfba7a091461012f575b600080fd5b610081600480360361007c9190810190610e25565b61014b565b60405161008e9190611616565b60405180910390f35b6100b160048036036100ac9190810190610ecb565b610405565b6040516100be91906114f8565b60405180910390f35b6100e160048036036100dc9190810190610e8a565b610545565b6040516100ee91906114dd565b60405180910390f35b610111600480360361010c9190810190610e4e565b610643565b005b61012d60048036036101289190810190610fce565b6106b0565b005b61014960048036036101449190810190610f37565b610898565b005b610153610b1e565b600160008381526020019081526020016000206040518060a001604052908160008201548152602001600182018054600181600116156101000203166002900480601f0160208091040260200160405190810160405280929190818152602001828054600181600116156101000203166002900480156102145780601f106101e957610100808354040283529160200191610214565b820191906000526020600020905b8154815290600101906020018083116101f757829003601f168201915b5050505050815260200160028201805480602002602001604051908101604052809291908181526020016000905b828210156102fe578382906000526020600020018054600181600116156101000203166002900480601f0160208091040260200160405190810160405280929190818152602001828054600181600116156101000203166002900480156102ea5780601f106102bf576101008083540402835291602001916102ea565b820191906000526020600020905b8154815290600101906020018083116102cd57829003601f168201915b505050505081526020019060010190610242565b505050508152602001600382018054600181600116156101000203166002900480601f01602080910402602001604051908101604052809291908181526020018280546001816001161561010002031660029004801561039f5780601f106103745761010080835404028352916020019161039f565b820191906000526020600020905b81548152906001019060200180831161038257829003601f168201915b505050505081526020016004820160009054906101000a900473ffffffffffffffffffffffffffffffffffffffff1673ffffffffffffffffffffffffffffffffffffffff1673ffffffffffffffffffffffffffffffffffffffff16815250509050919050565b600082600073ffffffffffffffffffffffffffffffffffffffff166000826040516104309190611473565b908152602001604051809103902060000160009054906101000a900473ffffffffffffffffffffffffffffffffffffffff1673ffffffffffffffffffffffffffffffffffffffff1614156104b9576040517f08c379a00000000000000000000000000000000000000000000000000000000081526004016104b0906115d6565b60405180910390fd5b60008351116104fd576040517f08c379a00000000000000000000000000000000000000000000000000000000081526004016104f4906115b6565b60405180910390fd5b60008460405161050d9190611473565b908152602001604051809103902060030160405161052b919061145c565b604051809103902083805190602001201491505092915050565b600081600073ffffffffffffffffffffffffffffffffffffffff166000826040516105709190611473565b908152602001604051809103902060000160009054906101000a900473ffffffffffffffffffffffffffffffffffffffff1673ffffffffffffffffffffffffffffffffffffffff1614156105f9576040517f08c379a00000000000000000000000000000000000000000000000000000000081526004016105f0906115d6565b60405180910390fd5b6000836040516106099190611473565b908152602001604051809103902060000160009054906101000a900473ffffffffffffffffffffffffffffffffffffffff16915050919050565b806002600084815260200190815260200160002060003373ffffffffffffffffffffffffffffffffffffffff1673ffffffffffffffffffffffffffffffffffffffff16815260200190815260200160002060006101000a81548160ff021916908360ff1602179055505050565b81600073ffffffffffffffffffffffffffffffffffffffff166000826040516106d99190611473565b908152602001604051809103902060000160009054906101000a900473ffffffffffffffffffffffffffffffffffffffff1673ffffffffffffffffffffffffffffffffffffffff1614610761576040517f08c379a000000000000000000000000000000000000000000000000000000000815260040161075890611596565b60405180910390fd5b60405180608001604052803373ffffffffffffffffffffffffffffffffffffffff168152602001858152602001848152602001838152506000846040516107a89190611473565b908152602001604051809103902060008201518160000160006101000a81548173ffffffffffffffffffffffffffffffffffffffff021916908373ffffffffffffffffffffffffffffffffffffffff1602179055506020820151816001019080519060200190610819929190610b66565b506040820151816002019080519060200190610836929190610b66565b506060820151816003019080519060200190610853929190610b66565b509050507f4ff533811c4a32b3d67001529174cc06f31131411d44ee13f1fce40a1a5a270183853360405161088a93929190611551565b60405180910390a150505050565b82600073ffffffffffffffffffffffffffffffffffffffff166000826040516108c19190611473565b908152602001604051809103902060000160009054906101000a900473ffffffffffffffffffffffffffffffffffffffff1673ffffffffffffffffffffffffffffffffffffffff16141561094a576040517f08c379a0000000000000000000000000000000000000000000000000000000008152600401610941906115d6565b60405180910390fd5b600082511161098e576040517f08c379a0000000000000000000000000000000000000000000000000000000008152600401610985906115f6565b60405180910390fd5b6000848433856000815181106109a057fe5b6020026020010151426040516020016109bd95949392919061148a565b6040516020818303038152906040528051906020012090506109dd610b1e565b6040518060a001604052808381526020018681526020018581526020018781526020013373ffffffffffffffffffffffffffffffffffffffff1681525090508060016000848152602001908152602001600020600082015181600001556020820151816001019080519060200190610a56929190610b66565b506040820151816002019080519060200190610a73929190610be6565b506060820151816003019080519060200190610a90929190610b66565b5060808201518160040160006101000a81548173ffffffffffffffffffffffffffffffffffffffff021916908373ffffffffffffffffffffffffffffffffffffffff1602179055509050507f7f49ad19314375f348c477ff4aa6c83fffac22c854f4ffc94a09c3f4005c9575828633604051610b0e93929190611513565b60405180910390a1505050505050565b6040518060a0016040528060008019168152602001606081526020016060815260200160608152602001600073ffffffffffffffffffffffffffffffffffffffff1681525090565b828054600181600116156101000203166002900490600052602060002090601f016020900481019282601f10610ba757805160ff1916838001178555610bd5565b82800160010185558215610bd5579182015b82811115610bd4578251825591602001919060010190610bb9565b5b509050610be29190610c46565b5090565b828054828255906000526020600020908101928215610c35579160200282015b82811115610c34578251829080519060200190610c24929190610b66565b5091602001919060010190610c06565b5b509050610c429190610c6b565b5090565b610c6891905b80821115610c64576000816000905550600101610c4c565b5090565b90565b610c9491905b80821115610c905760008181610c879190610c97565b50600101610c71565b5090565b90565b50805460018160011615610100020316600290046000825580601f10610cbd5750610cdc565b601f016020900490600052602060002090810190610cdb9190610c46565b5b50565b600082601f830112610cf057600080fd5b8135610d03610cfe82611665565b611638565b9150818183526020840193506020810190508360005b83811015610d495781358601610d2f8882610d68565b845260208401935060208301925050600181019050610d19565b5050505092915050565b600081359050610d62816118b6565b92915050565b600082601f830112610d7957600080fd5b8135610d8c610d878261168d565b611638565b91508082526020830160208301858383011115610da857600080fd5b610db3838284611828565b50505092915050565b600082601f830112610dcd57600080fd5b8135610de0610ddb826116b9565b611638565b91508082526020830160208301858383011115610dfc57600080fd5b610e07838284611828565b50505092915050565b600081359050610e1f816118cd565b92915050565b600060208284031215610e3757600080fd5b6000610e4584828501610d53565b91505092915050565b60008060408385031215610e6157600080fd5b6000610e6f85828601610d53565b9250506020610e8085828601610e10565b9150509250929050565b600060208284031215610e9c57600080fd5b600082013567ffffffffffffffff811115610eb657600080fd5b610ec284828501610dbc565b91505092915050565b60008060408385031215610ede57600080fd5b600083013567ffffffffffffffff811115610ef857600080fd5b610f0485828601610dbc565b925050602083013567ffffffffffffffff811115610f2157600080fd5b610f2d85828601610dbc565b9150509250929050565b600080600060608486031215610f4c57600080fd5b600084013567ffffffffffffffff811115610f6657600080fd5b610f7286828701610dbc565b935050602084013567ffffffffffffffff811115610f8f57600080fd5b610f9b86828701610dbc565b925050604084013567ffffffffffffffff811115610fb857600080fd5b610fc486828701610cdf565b9150509250925092565b600080600060608486031215610fe357600080fd5b600084013567ffffffffffffffff811115610ffd57600080fd5b61100986828701610dbc565b935050602084013567ffffffffffffffff81111561102657600080fd5b61103286828701610dbc565b925050604084013567ffffffffffffffff81111561104f57600080fd5b61105b86828701610dbc565b9150509250925092565b60006110718383611257565b905092915050565b611082816117f2565b82525050565b61109961109482611793565b61186a565b82525050565b6110a881611781565b82525050565b6110b781611781565b82525050565b60006110c88261170a565b6110d28185611738565b9350836020820285016110e4856116e5565b8060005b8581101561112057848403895281516111018582611065565b945061110c8361172b565b925060208a019950506001810190506110e8565b50829750879550505050505092915050565b61113b816117a5565b82525050565b61114a816117b1565b82525050565b611159816117b1565b82525050565b60008154600181166000811461117c57600181146111a1576111e5565b607f600283041661118d8187611749565b955060ff19831686528086019350506111e5565b600282046111af8187611749565b95506111ba856116f5565b60005b828110156111dc578154818901526001820191506020810190506111bd565b82880195505050505b505092915050565b60006111f882611720565b6112028185611765565b9350611212818560208601611837565b61121b81611898565b840191505092915050565b600061123182611720565b61123b8185611776565b935061124b818560208601611837565b80840191505092915050565b600061126282611715565b61126c8185611754565b935061127c818560208601611837565b61128581611898565b840191505092915050565b600061129b82611715565b6112a58185611776565b93506112b5818560208601611837565b80840191505092915050565b60006112ce601683611765565b91507f4368616e6e656c20616c72656164792065786973742e000000000000000000006000830152602082019050919050565b600061130e601083611765565b91507f496e76616c69642070617373776f7264000000000000000000000000000000006000830152602082019050919050565b600061134e601783611765565b91507f4368616e6e656c20646f6573206e6f742065786973742e0000000000000000006000830152602082019050919050565b600061138e601683611765565b91507f496e76616c696420616e7377657273206c656e677468000000000000000000006000830152602082019050919050565b600060a0830160008301516113d96000860182611141565b50602083015184820360208601526113f18282611257565b9150506040830151848203604086015261140b82826110bd565b915050606083015184820360608601526114258282611257565b915050608083015161143a608086018261109f565b508091505092915050565b611456611451826117db565b61188e565b82525050565b6000611468828461115f565b915081905092915050565b600061147f8284611226565b915081905092915050565b60006114968288611226565b91506114a28287611226565b91506114ae8286611088565b6014820191506114be8285611290565b91506114ca8284611445565b6020820191508190509695505050505050565b60006020820190506114f260008301846110ae565b92915050565b600060208201905061150d6000830184611132565b92915050565b60006060820190506115286000830186611150565b818103602083015261153a81856111ed565b90506115496040830184611079565b949350505050565b6000606082019050818103600083015261156b81866111ed565b9050818103602083015261157f81856111ed565b905061158e6040830184611079565b949350505050565b600060208201905081810360008301526115af816112c1565b9050919050565b600060208201905081810360008301526115cf81611301565b9050919050565b600060208201905081810360008301526115ef81611341565b9050919050565b6000602082019050818103600083015261160f81611381565b9050919050565b6000602082019050818103600083015261163081846113c1565b905092915050565b6000604051905081810181811067ffffffffffffffff8211171561165b57600080fd5b8060405250919050565b600067ffffffffffffffff82111561167c57600080fd5b602082029050602081019050919050565b600067ffffffffffffffff8211156116a457600080fd5b601f19601f8301169050602081019050919050565b600067ffffffffffffffff8211156116d057600080fd5b601f19601f8301169050602081019050919050565b6000819050602082019050919050565b60008190508160005260206000209050919050565b600081519050919050565b600081519050919050565b600081519050919050565b6000602082019050919050565b600082825260208201905092915050565b600081905092915050565b600082825260208201905092915050565b600082825260208201905092915050565b600081905092915050565b600061178c826117bb565b9050919050565b600061179e826117bb565b9050919050565b60008115159050919050565b6000819050919050565b600073ffffffffffffffffffffffffffffffffffffffff82169050919050565b6000819050919050565b600060ff82169050919050565b60006117fd82611804565b9050919050565b600061180f82611816565b9050919050565b6000611821826117bb565b9050919050565b82818337600083830152505050565b60005b8381101561185557808201518184015260208101905061183a565b83811115611864576000848401525b50505050565b60006118758261187c565b9050919050565b6000611887826118a9565b9050919050565b6000819050919050565b6000601f19601f8301169050919050565b60008160601b9050919050565b6118bf816117b1565b81146118ca57600080fd5b50565b6118d6816117e5565b81146118e157600080fd5b5056fea365627a7a72315820dfeaee311d149a298233ce250a941e73efb2a46b272b9a1baef9caa99a3784656c6578706572696d656e74616cf564736f6c63430005100040",
  "source": "// SPDX-License-Identifier: MIT\npragma solidity >=0.4.21 <8.10.0;\npragma experimental ABIEncoderV2;\n\ncontract CommunEth {\n    struct Channel {\n        address owner; // creator\n        string name; // Name\n        string path; // waku topic format\n        string password;\n    }\n\n    struct Poll {\n        bytes32 id;\n        string question;\n        string[] answers;\n        string channelPath;\n        address creator;\n    }\n\n    // channelPath => x\n    mapping(string => Channel) channels;\n    // channelPath => (id => Poll)\n    mapping(bytes32 => Poll) polls;\n    mapping(bytes32 => mapping(address => uint8)) votes;\n\n    event ChannelCreated(string path, string name, address owner);\n    event PollCreated(bytes32 id, string question, address creator);\n\n    modifier channelExists(string memory path) {\n        require(channels[path].owner != address(0), \"Channel does not exist.\");\n        _;\n    }\n\n    modifier channelDoesNotExists(string memory path) {\n        require(channels[path].owner == address(0), \"Channel already exist.\");\n        _;\n    }\n\n    function createChannel(\n        string memory name,\n        string memory path,\n        string memory password\n    ) public channelDoesNotExists(path) {\n        channels[path] = Channel(msg.sender, name, path, password);\n        emit ChannelCreated(path, name, msg.sender);\n    }\n\n    function createPoll(\n        string memory path,\n        string memory question,\n        string[] memory answers\n    ) public channelExists(path) {\n        require(answers.length > 0, \"Invalid answers length\");\n\n        bytes32 pollId = keccak256(\n            abi.encodePacked(\n                path,\n                question,\n                msg.sender,\n                answers[0],\n                block.timestamp\n            )\n        );\n\n        Poll memory poll = Poll({\n            id: pollId,\n            question: question,\n            answers: answers,\n            channelPath: path,\n            creator: msg.sender\n        });\n\n        polls[pollId] = poll;\n        emit PollCreated(pollId, question, msg.sender);\n    }\n\n    function getPoll(bytes32 pollId) public view returns (Poll memory poll) {\n        poll = polls[pollId];\n    }\n\n    function vote(bytes32 pollId, uint8 answer) public {\n        // require(\n        //     votes[pollId][msg.sender] != address(0),\n        //     \"Poll does not exists\"\n        // );\n        votes[pollId][msg.sender] = answer;\n    }\n\n    function getChannelOwner(string memory path)\n        public\n        view\n        channelExists(path)\n        returns (address)\n    {\n        return channels[path].owner;\n    }\n\n    function matchesCredentials(string memory path, string memory password)\n        public\n        view\n        channelExists(path)\n        returns (bool)\n    {\n        require(bytes(password).length > 0, \"Invalid password\");\n        return\n            keccak256(bytes(password)) ==\n            keccak256(bytes(channels[path].password));\n    }\n}\n",
  "sourcePath": "/Users/josancamon19/Downloads/personal/communneth/dapp/contracts/CommunEth.sol",
  "compiler": {
    "name": "solc",
    "version": "0.5.16+commit.9c3226ce.Emscripten.clang"
  },
  "schemaVersion": "3.4.3",
  "updatedAt": "2022-04-01T09:10:36.304Z",
  "networkType": "ethereum",
  "devdoc": {
    "methods": {}
  },
  "userdoc": {
    "methods": {}
  }
}