{
  "contractName": "CommunnEthChannels",
  "abi": [
    {
      "constant": false,
      "inputs": [
        {
          "internalType": "string",
          "name": "name",
          "type": "string"
        },
        {
          "internalType": "string",
          "name": "path",
          "type": "string"
        }
      ],
      "name": "createChannel",
      "outputs": [],
      "payable": false,
      "stateMutability": "nonpayable",
      "type": "function"
    },
    {
      "constant": true,
      "inputs": [
        {
          "internalType": "string",
          "name": "path",
          "type": "string"
        }
      ],
      "name": "getChannelOwner",
      "outputs": [
        {
          "internalType": "address",
          "name": "",
          "type": "address"
        }
      ],
      "payable": false,
      "stateMutability": "view",
      "type": "function"
    }
  ],
  "bytecode": "0x608060405234801561001057600080fd5b5061077b806100206000396000f3fe608060405234801561001057600080fd5b50600436106100365760003560e01c80637af919d81461003b5780638f12995b1461018d575b600080fd5b61018b6004803603604081101561005157600080fd5b810190808035906020019064010000000081111561006e57600080fd5b82018360208201111561008057600080fd5b803590602001918460018302840111640100000000831117156100a257600080fd5b91908080601f016020809104026020016040519081016040528093929190818152602001838380828437600081840152601f19601f8201169050808301925050505050505091929192908035906020019064010000000081111561010557600080fd5b82018360208201111561011757600080fd5b8035906020019184600183028401116401000000008311171561013957600080fd5b91908080601f016020809104026020016040519081016040528093929190818152602001838380828437600081840152601f19601f820116905080830192505050505050509192919290505050610288565b005b610246600480360360208110156101a357600080fd5b81019080803590602001906401000000008111156101c057600080fd5b8201836020820111156101d257600080fd5b803590602001918460018302840111640100000000831117156101f457600080fd5b91908080601f016020809104026020016040519081016040528093929190818152602001838380828437600081840152601f19601f8201169050808301925050505050505091929192905050506104da565b604051808273ffffffffffffffffffffffffffffffffffffffff1673ffffffffffffffffffffffffffffffffffffffff16815260200191505060405180910390f35b80600073ffffffffffffffffffffffffffffffffffffffff166000826040518082805190602001908083835b602083106102d757805182526020820191506020810190506020830392506102b4565b6001836020036101000a038019825116818451168082178552505050505050905001915050908152602001604051809103902060000160009054906101000a900473ffffffffffffffffffffffffffffffffffffffff1673ffffffffffffffffffffffffffffffffffffffff16146103b7576040517f08c379a00000000000000000000000000000000000000000000000000000000081526004018080602001828103825260168152602001807f4368616e6e656c20616c72656164792065786973742e0000000000000000000081525060200191505060405180910390fd5b60405180606001604052803373ffffffffffffffffffffffffffffffffffffffff168152602001848152602001838152506000836040518082805190602001908083835b6020831061041e57805182526020820191506020810190506020830392506103fb565b6001836020036101000a038019825116818451168082178552505050505050905001915050908152602001604051809103902060008201518160000160006101000a81548173ffffffffffffffffffffffffffffffffffffffff021916908373ffffffffffffffffffffffffffffffffffffffff16021790555060208201518160010190805190602001906104b49291906106a1565b5060408201518160020190805190602001906104d19291906106a1565b50905050505050565b600081600073ffffffffffffffffffffffffffffffffffffffff166000826040518082805190602001908083835b6020831061052b5780518252602082019150602081019050602083039250610508565b6001836020036101000a038019825116818451168082178552505050505050905001915050908152602001604051809103902060000160009054906101000a900473ffffffffffffffffffffffffffffffffffffffff1673ffffffffffffffffffffffffffffffffffffffff16141561060c576040517f08c379a00000000000000000000000000000000000000000000000000000000081526004018080602001828103825260178152602001807f4368616e6e656c20646f6573206e6f742065786973742e00000000000000000081525060200191505060405180910390fd5b6000836040518082805190602001908083835b60208310610642578051825260208201915060208101905060208303925061061f565b6001836020036101000a038019825116818451168082178552505050505050905001915050908152602001604051809103902060000160009054906101000a900473ffffffffffffffffffffffffffffffffffffffff16915050919050565b828054600181600116156101000203166002900490600052602060002090601f016020900481019282601f106106e257805160ff1916838001178555610710565b82800160010185558215610710579182015b8281111561070f5782518255916020019190600101906106f4565b5b50905061071d9190610721565b5090565b61074391905b8082111561073f576000816000905550600101610727565b5090565b9056fea265627a7a72315820605821ca6913504b01f3789b0f1fee50dfb7e88bc239dfb36233db856113ef7064736f6c63430005100032",
  "source": "// SPDX-License-Identifier: MIT\npragma solidity >=0.4.21 <8.10.0;\n\ncontract CommunnEthChannels {\n    struct Channel {\n        address owner; // creator\n        string name; // Name\n        string path; // waku topic format\n    }\n\n    mapping(string => Channel) channels;\n\n    modifier channelExists(string memory path) {\n        require(channels[path].owner != address(0), \"Channel does not exist.\");\n        _;\n    }\n\n    modifier channelDoesNotExists(string memory path) {\n        require(channels[path].owner == address(0), \"Channel already exist.\");\n        _;\n    }\n\n    function createChannel(string memory name, string memory path)\n        public\n        channelDoesNotExists(path)\n    {\n        channels[path] = Channel(msg.sender, name, path);\n    }\n\n    function getChannelOwner(string memory path)\n        public\n        view\n        channelExists(path)\n        returns (address)\n    {\n        return channels[path].owner;\n    }\n}\n",
  "sourcePath": "/Users/josancamon19/Downloads/personal/communneth/dapp/contracts/CommunnEthChannels.sol",
  "compiler": {
    "name": "solc",
    "version": "0.5.16+commit.9c3226ce.Emscripten.clang"
  },
  "schemaVersion": "3.4.3",
  "updatedAt": "2022-03-12T22:22:07.205Z",
  "networkType": "ethereum",
  "devdoc": {
    "methods": {}
  },
  "userdoc": {
    "methods": {}
  }
}