{
  "contractName": "CommunEth",
  "abi": [
    {
      "anonymous": false,
      "inputs": [
        {
          "indexed": false,
          "internalType": "string",
          "name": "path",
          "type": "string"
        },
        {
          "indexed": false,
          "internalType": "string",
          "name": "name",
          "type": "string"
        },
        {
          "indexed": false,
          "internalType": "address",
          "name": "owner",
          "type": "address"
        }
      ],
      "name": "ChannelCreated",
      "type": "event"
    },
    {
      "anonymous": false,
      "inputs": [
        {
          "indexed": false,
          "internalType": "bytes32",
          "name": "id",
          "type": "bytes32"
        },
        {
          "indexed": false,
          "internalType": "string",
          "name": "question",
          "type": "string"
        },
        {
          "indexed": false,
          "internalType": "address",
          "name": "creator",
          "type": "address"
        }
      ],
      "name": "PollCreated",
      "type": "event"
    },
    {
      "constant": false,
      "inputs": [
        {
          "internalType": "string",
          "name": "name",
          "type": "string"
        },
        {
          "internalType": "string",
          "name": "path",
          "type": "string"
        }
      ],
      "name": "createChannel",
      "outputs": [],
      "payable": false,
      "stateMutability": "nonpayable",
      "type": "function"
    },
    {
      "constant": false,
      "inputs": [
        {
          "internalType": "string",
          "name": "path",
          "type": "string"
        },
        {
          "internalType": "string",
          "name": "question",
          "type": "string"
        },
        {
          "internalType": "string[]",
          "name": "answers",
          "type": "string[]"
        }
      ],
      "name": "createPoll",
      "outputs": [],
      "payable": false,
      "stateMutability": "nonpayable",
      "type": "function"
    },
    {
      "constant": true,
      "inputs": [
        {
          "internalType": "bytes32",
          "name": "pollId",
          "type": "bytes32"
        }
      ],
      "name": "getPoll",
      "outputs": [
        {
          "components": [
            {
              "internalType": "bytes32",
              "name": "id",
              "type": "bytes32"
            },
            {
              "internalType": "string",
              "name": "question",
              "type": "string"
            },
            {
              "internalType": "string[]",
              "name": "answers",
              "type": "string[]"
            },
            {
              "internalType": "string",
              "name": "channelPath",
              "type": "string"
            },
            {
              "internalType": "address",
              "name": "creator",
              "type": "address"
            }
          ],
          "internalType": "struct CommunEth.Poll",
          "name": "poll",
          "type": "tuple"
        }
      ],
      "payable": false,
      "stateMutability": "view",
      "type": "function"
    },
    {
      "constant": false,
      "inputs": [
        {
          "internalType": "bytes32",
          "name": "pollId",
          "type": "bytes32"
        },
        {
          "internalType": "uint8",
          "name": "answer",
          "type": "uint8"
        }
      ],
      "name": "vote",
      "outputs": [],
      "payable": false,
      "stateMutability": "nonpayable",
      "type": "function"
    },
    {
      "constant": true,
      "inputs": [
        {
          "internalType": "string",
          "name": "path",
          "type": "string"
        }
      ],
      "name": "getChannelOwner",
      "outputs": [
        {
          "internalType": "address",
          "name": "",
          "type": "address"
        }
      ],
      "payable": false,
      "stateMutability": "view",
      "type": "function"
    }
  ],
  "bytecode": "0x608060405234801561001057600080fd5b50611596806100206000396000f3fe608060405234801561001057600080fd5b50600436106100575760003560e01c80632cbbd7381461005c5780637af919d81461008c5780638f12995b146100a8578063c9a28cb9146100d8578063cfba7a09146100f4575b600080fd5b61007660048036036100719190810190610c86565b610110565b60405161008391906112b1565b60405180910390f35b6100a660048036036100a19190810190610d2c565b6103ca565b005b6100c260048036036100bd9190810190610ceb565b61058e565b6040516100cf91906111b3565b60405180910390f35b6100f260048036036100ed9190810190610caf565b61068c565b005b61010e60048036036101099190810190610d98565b6106f9565b005b61011861097f565b600160008381526020019081526020016000206040518060a001604052908160008201548152602001600182018054600181600116156101000203166002900480601f0160208091040260200160405190810160405280929190818152602001828054600181600116156101000203166002900480156101d95780601f106101ae576101008083540402835291602001916101d9565b820191906000526020600020905b8154815290600101906020018083116101bc57829003601f168201915b5050505050815260200160028201805480602002602001604051908101604052809291908181526020016000905b828210156102c3578382906000526020600020018054600181600116156101000203166002900480601f0160208091040260200160405190810160405280929190818152602001828054600181600116156101000203166002900480156102af5780601f10610284576101008083540402835291602001916102af565b820191906000526020600020905b81548152906001019060200180831161029257829003601f168201915b505050505081526020019060010190610207565b505050508152602001600382018054600181600116156101000203166002900480601f0160208091040260200160405190810160405280929190818152602001828054600181600116156101000203166002900480156103645780601f1061033957610100808354040283529160200191610364565b820191906000526020600020905b81548152906001019060200180831161034757829003601f168201915b505050505081526020016004820160009054906101000a900473ffffffffffffffffffffffffffffffffffffffff1673ffffffffffffffffffffffffffffffffffffffff1673ffffffffffffffffffffffffffffffffffffffff16815250509050919050565b80600073ffffffffffffffffffffffffffffffffffffffff166000826040516103f39190611149565b908152602001604051809103902060000160009054906101000a900473ffffffffffffffffffffffffffffffffffffffff1673ffffffffffffffffffffffffffffffffffffffff161461047b576040517f08c379a000000000000000000000000000000000000000000000000000000000815260040161047290611251565b60405180910390fd5b60405180606001604052803373ffffffffffffffffffffffffffffffffffffffff168152602001848152602001838152506000836040516104bc9190611149565b908152602001604051809103902060008201518160000160006101000a81548173ffffffffffffffffffffffffffffffffffffffff021916908373ffffffffffffffffffffffffffffffffffffffff160217905550602082015181600101908051906020019061052d9291906109c7565b50604082015181600201908051906020019061054a9291906109c7565b509050507f4ff533811c4a32b3d67001529174cc06f31131411d44ee13f1fce40a1a5a27018284336040516105819392919061120c565b60405180910390a1505050565b600081600073ffffffffffffffffffffffffffffffffffffffff166000826040516105b99190611149565b908152602001604051809103902060000160009054906101000a900473ffffffffffffffffffffffffffffffffffffffff1673ffffffffffffffffffffffffffffffffffffffff161415610642576040517f08c379a000000000000000000000000000000000000000000000000000000000815260040161063990611271565b60405180910390fd5b6000836040516106529190611149565b908152602001604051809103902060000160009054906101000a900473ffffffffffffffffffffffffffffffffffffffff16915050919050565b806002600084815260200190815260200160002060003373ffffffffffffffffffffffffffffffffffffffff1673ffffffffffffffffffffffffffffffffffffffff16815260200190815260200160002060006101000a81548160ff021916908360ff1602179055505050565b82600073ffffffffffffffffffffffffffffffffffffffff166000826040516107229190611149565b908152602001604051809103902060000160009054906101000a900473ffffffffffffffffffffffffffffffffffffffff1673ffffffffffffffffffffffffffffffffffffffff1614156107ab576040517f08c379a00000000000000000000000000000000000000000000000000000000081526004016107a290611271565b60405180910390fd5b60008251116107ef576040517f08c379a00000000000000000000000000000000000000000000000000000000081526004016107e690611291565b60405180910390fd5b60008484338560008151811061080157fe5b60200260200101514260405160200161081e959493929190611160565b60405160208183030381529060405280519060200120905061083e61097f565b6040518060a001604052808381526020018681526020018581526020018781526020013373ffffffffffffffffffffffffffffffffffffffff16815250905080600160008481526020019081526020016000206000820151816000015560208201518160010190805190602001906108b79291906109c7565b5060408201518160020190805190602001906108d4929190610a47565b5060608201518160030190805190602001906108f19291906109c7565b5060808201518160040160006101000a81548173ffffffffffffffffffffffffffffffffffffffff021916908373ffffffffffffffffffffffffffffffffffffffff1602179055509050507f7f49ad19314375f348c477ff4aa6c83fffac22c854f4ffc94a09c3f4005c957582863360405161096f939291906111ce565b60405180910390a1505050505050565b6040518060a0016040528060008019168152602001606081526020016060815260200160608152602001600073ffffffffffffffffffffffffffffffffffffffff1681525090565b828054600181600116156101000203166002900490600052602060002090601f016020900481019282601f10610a0857805160ff1916838001178555610a36565b82800160010185558215610a36579182015b82811115610a35578251825591602001919060010190610a1a565b5b509050610a439190610aa7565b5090565b828054828255906000526020600020908101928215610a96579160200282015b82811115610a95578251829080519060200190610a859291906109c7565b5091602001919060010190610a67565b5b509050610aa39190610acc565b5090565b610ac991905b80821115610ac5576000816000905550600101610aad565b5090565b90565b610af591905b80821115610af15760008181610ae89190610af8565b50600101610ad2565b5090565b90565b50805460018160011615610100020316600290046000825580601f10610b1e5750610b3d565b601f016020900490600052602060002090810190610b3c9190610aa7565b5b50565b600082601f830112610b5157600080fd5b8135610b64610b5f82611300565b6112d3565b9150818183526020840193506020810190508360005b83811015610baa5781358601610b908882610bc9565b845260208401935060208301925050600181019050610b7a565b5050505092915050565b600081359050610bc381611525565b92915050565b600082601f830112610bda57600080fd5b8135610bed610be882611328565b6112d3565b91508082526020830160208301858383011115610c0957600080fd5b610c14838284611497565b50505092915050565b600082601f830112610c2e57600080fd5b8135610c41610c3c82611354565b6112d3565b91508082526020830160208301858383011115610c5d57600080fd5b610c68838284611497565b50505092915050565b600081359050610c808161153c565b92915050565b600060208284031215610c9857600080fd5b6000610ca684828501610bb4565b91505092915050565b60008060408385031215610cc257600080fd5b6000610cd085828601610bb4565b9250506020610ce185828601610c71565b9150509250929050565b600060208284031215610cfd57600080fd5b600082013567ffffffffffffffff811115610d1757600080fd5b610d2384828501610c1d565b91505092915050565b60008060408385031215610d3f57600080fd5b600083013567ffffffffffffffff811115610d5957600080fd5b610d6585828601610c1d565b925050602083013567ffffffffffffffff811115610d8257600080fd5b610d8e85828601610c1d565b9150509250929050565b600080600060608486031215610dad57600080fd5b600084013567ffffffffffffffff811115610dc757600080fd5b610dd386828701610c1d565b935050602084013567ffffffffffffffff811115610df057600080fd5b610dfc86828701610c1d565b925050604084013567ffffffffffffffff811115610e1957600080fd5b610e2586828701610b40565b9150509250925092565b6000610e3b8383610f84565b905092915050565b610e4c81611461565b82525050565b610e63610e5e8261140e565b6114d9565b82525050565b610e72816113fc565b82525050565b610e81816113fc565b82525050565b6000610e9282611390565b610e9c81856113be565b935083602082028501610eae85611380565b8060005b85811015610eea5784840389528151610ecb8582610e2f565b9450610ed6836113b1565b925060208a01995050600181019050610eb2565b50829750879550505050505092915050565b610f0581611420565b82525050565b610f1481611420565b82525050565b6000610f25826113a6565b610f2f81856113e0565b9350610f3f8185602086016114a6565b610f4881611507565b840191505092915050565b6000610f5e826113a6565b610f6881856113f1565b9350610f788185602086016114a6565b80840191505092915050565b6000610f8f8261139b565b610f9981856113cf565b9350610fa98185602086016114a6565b610fb281611507565b840191505092915050565b6000610fc88261139b565b610fd281856113f1565b9350610fe28185602086016114a6565b80840191505092915050565b6000610ffb6016836113e0565b91507f4368616e6e656c20616c72656164792065786973742e000000000000000000006000830152602082019050919050565b600061103b6017836113e0565b91507f4368616e6e656c20646f6573206e6f742065786973742e0000000000000000006000830152602082019050919050565b600061107b6016836113e0565b91507f496e76616c696420616e7377657273206c656e677468000000000000000000006000830152602082019050919050565b600060a0830160008301516110c66000860182610efc565b50602083015184820360208601526110de8282610f84565b915050604083015184820360408601526110f88282610e87565b915050606083015184820360608601526111128282610f84565b91505060808301516111276080860182610e69565b508091505092915050565b61114361113e8261144a565b6114fd565b82525050565b60006111558284610f53565b915081905092915050565b600061116c8288610f53565b91506111788287610f53565b91506111848286610e52565b6014820191506111948285610fbd565b91506111a08284611132565b6020820191508190509695505050505050565b60006020820190506111c86000830184610e78565b92915050565b60006060820190506111e36000830186610f0b565b81810360208301526111f58185610f1a565b90506112046040830184610e43565b949350505050565b600060608201905081810360008301526112268186610f1a565b9050818103602083015261123a8185610f1a565b90506112496040830184610e43565b949350505050565b6000602082019050818103600083015261126a81610fee565b9050919050565b6000602082019050818103600083015261128a8161102e565b9050919050565b600060208201905081810360008301526112aa8161106e565b9050919050565b600060208201905081810360008301526112cb81846110ae565b905092915050565b6000604051905081810181811067ffffffffffffffff821117156112f657600080fd5b8060405250919050565b600067ffffffffffffffff82111561131757600080fd5b602082029050602081019050919050565b600067ffffffffffffffff82111561133f57600080fd5b601f19601f8301169050602081019050919050565b600067ffffffffffffffff82111561136b57600080fd5b601f19601f8301169050602081019050919050565b6000819050602082019050919050565b600081519050919050565b600081519050919050565b600081519050919050565b6000602082019050919050565b600082825260208201905092915050565b600082825260208201905092915050565b600082825260208201905092915050565b600081905092915050565b60006114078261142a565b9050919050565b60006114198261142a565b9050919050565b6000819050919050565b600073ffffffffffffffffffffffffffffffffffffffff82169050919050565b6000819050919050565b600060ff82169050919050565b600061146c82611473565b9050919050565b600061147e82611485565b9050919050565b60006114908261142a565b9050919050565b82818337600083830152505050565b60005b838110156114c45780820151818401526020810190506114a9565b838111156114d3576000848401525b50505050565b60006114e4826114eb565b9050919050565b60006114f682611518565b9050919050565b6000819050919050565b6000601f19601f8301169050919050565b60008160601b9050919050565b61152e81611420565b811461153957600080fd5b50565b61154581611454565b811461155057600080fd5b5056fea365627a7a723158205697490e7db7b9fa5063d2ab2b1b1947159f48ec790230418a483ac3f0bf67e96c6578706572696d656e74616cf564736f6c63430005100040",
  "source": "// SPDX-License-Identifier: MIT\npragma solidity >=0.4.21 <8.10.0;\npragma experimental ABIEncoderV2;\n\ncontract CommunEth {\n    struct Channel {\n        address owner; // creator\n        string name; // Name\n        string path; // waku topic format\n    }\n\n    struct Poll {\n        bytes32 id;\n        string question;\n        string[] answers;\n        string channelPath;\n        address creator;\n    }\n\n    // channelPath => x\n    mapping(string => Channel) channels;\n    // channelPath => (id => Poll)\n    mapping(bytes32 => Poll) polls;\n    mapping(bytes32 => mapping(address => uint8)) votes;\n\n    event ChannelCreated(string path, string name, address owner);\n    event PollCreated(bytes32 id, string question, address creator);\n\n    modifier channelExists(string memory path) {\n        require(channels[path].owner != address(0), \"Channel does not exist.\");\n        _;\n    }\n\n    modifier channelDoesNotExists(string memory path) {\n        require(channels[path].owner == address(0), \"Channel already exist.\");\n        _;\n    }\n\n    function createChannel(string memory name, string memory path)\n        public\n        channelDoesNotExists(path)\n    {\n        channels[path] = Channel(msg.sender, name, path);\n        emit ChannelCreated(path, name, msg.sender);\n    }\n\n    function createPoll(\n        string memory path,\n        string memory question,\n        string[] memory answers\n    ) public channelExists(path) {\n        require(answers.length > 0, \"Invalid answers length\");\n\n        bytes32 pollId = keccak256(\n            abi.encodePacked(\n                path,\n                question,\n                msg.sender,\n                answers[0],\n                block.timestamp\n            )\n        );\n\n        Poll memory poll = Poll({\n            id: pollId,\n            question: question,\n            answers: answers,\n            channelPath: path,\n            creator: msg.sender\n        });\n\n        polls[pollId] = poll;\n        emit PollCreated(pollId, question, msg.sender);\n    }\n\n    function getPoll(bytes32 pollId) public view returns (Poll memory poll) {\n        poll = polls[pollId];\n    }\n\n    function vote(bytes32 pollId, uint8 answer) public {\n        // require(\n        //     votes[pollId][msg.sender] != address(0),\n        //     \"Poll does not exists\"\n        // );\n        votes[pollId][msg.sender] = answer;\n    }\n\n    function getChannelOwner(string memory path)\n        public\n        view\n        channelExists(path)\n        returns (address)\n    {\n        return channels[path].owner;\n    }   \n}\n",
  "sourcePath": "/Users/josancamon19/Downloads/personal/communneth/dapp/contracts/CommunEth.sol",
  "compiler": {
    "name": "solc",
    "version": "0.5.16+commit.9c3226ce.Emscripten.clang"
  },
  "schemaVersion": "3.4.3",
  "updatedAt": "2022-03-13T19:00:02.931Z",
  "networkType": "ethereum",
  "devdoc": {
    "methods": {}
  },
  "userdoc": {
    "methods": {}
  }
}